{
  "_format": "hh-sol-artifact-1",
  "contractName": "EchoLink",
  "sourceName": "contracts/EchoLink.sol",
  "abi": [
    {
      "inputs": [
        {
          "internalType": "string",
          "name": "_initialMessage",
          "type": "string"
        }
      ],
      "stateMutability": "nonpayable",
      "type": "constructor"
    },
    {
      "anonymous": false,
      "inputs": [
        {
          "indexed": true,
          "internalType": "address",
          "name": "sender",
          "type": "address"
        },
        {
          "indexed": false,
          "internalType": "string",
          "name": "message",
          "type": "string"
        },
        {
          "indexed": false,
          "internalType": "uint256",
          "name": "value",
          "type": "uint256"
        }
      ],
      "name": "DataUpdated",
      "type": "event"
    },
    {
      "inputs": [],
      "name": "message",
      "outputs": [
        {
          "internalType": "string",
          "name": "",
          "type": "string"
        }
      ],
      "stateMutability": "view",
      "type": "function"
    },
    {
      "inputs": [
        {
          "internalType": "string",
          "name": "_message",
          "type": "string"
        },
        {
          "internalType": "uint256",
          "name": "_value",
          "type": "uint256"
        }
      ],
      "name": "updateData",
      "outputs": [],
      "stateMutability": "nonpayable",
      "type": "function"
    },
    {
      "inputs": [],
      "name": "value",
      "outputs": [
        {
          "internalType": "uint256",
          "name": "",
          "type": "uint256"
        }
      ],
      "stateMutability": "view",
      "type": "function"
    }
  ],
  "bytecode": "0x60806040523480156200001157600080fd5b5060405162000d0e38038062000d0e8339818101604052810190620000379190620001e3565b80600090816200004891906200047f565b505062000566565b6000604051905090565b600080fd5b600080fd5b600080fd5b600080fd5b6000601f19601f8301169050919050565b7f4e487b7100000000000000000000000000000000000000000000000000000000600052604160045260246000fd5b620000b9826200006e565b810181811067ffffffffffffffff82111715620000db57620000da6200007f565b5b80604052505050565b6000620000f062000050565b9050620000fe8282620000ae565b919050565b600067ffffffffffffffff8211156200012157620001206200007f565b5b6200012c826200006e565b9050602081019050919050565b60005b83811015620001595780820151818401526020810190506200013c565b60008484015250505050565b60006200017c620001768462000103565b620000e4565b9050828152602081018484840111156200019b576200019a62000069565b5b620001a884828562000139565b509392505050565b600082601f830112620001c857620001c762000064565b5b8151620001da84826020860162000165565b91505092915050565b600060208284031215620001fc57620001fb6200005a565b5b600082015167ffffffffffffffff8111156200021d576200021c6200005f565b5b6200022b84828501620001b0565b91505092915050565b600081519050919050565b7f4e487b7100000000000000000000000000000000000000000000000000000000600052602260045260246000fd5b600060028204905060018216806200028757607f821691505b6020821081036200029d576200029c6200023f565b5b50919050565b60008190508160005260206000209050919050565b60006020601f8301049050919050565b600082821b905092915050565b600060088302620003077fffffffffffffffffffffffffffffffffffffffffffffffffffffffffffffffff82620002c8565b620003138683620002c8565b95508019841693508086168417925050509392505050565b6000819050919050565b6000819050919050565b6000620003606200035a62000354846200032b565b62000335565b6200032b565b9050919050565b6000819050919050565b6200037c836200033f565b620003946200038b8262000367565b848454620002d5565b825550505050565b600090565b620003ab6200039c565b620003b881848462000371565b505050565b5b81811015620003e057620003d4600082620003a1565b600181019050620003be565b5050565b601f8211156200042f57620003f981620002a3565b6200040484620002b8565b8101602085101562000414578190505b6200042c6200042385620002b8565b830182620003bd565b50505b505050565b600082821c905092915050565b6000620004546000198460080262000434565b1980831691505092915050565b60006200046f838362000441565b9150826002028217905092915050565b6200048a8262000234565b67ffffffffffffffff811115620004a657620004a56200007f565b5b620004b282546200026e565b620004bf828285620003e4565b600060209050601f831160018114620004f75760008415620004e2578287015190505b620004ee858262000461565b8655506200055e565b601f1984166200050786620002a3565b60005b8281101562000531578489015182556001820191506020850194506020810190506200050a565b868310156200055157848901516200054d601f89168262000441565b8355505b6001600288020188555050505b505050505050565b61079880620005766000396000f3fe608060405234801561001057600080fd5b50600436106100415760003560e01c80633fa4f245146100465780636e37f0ce14610064578063e21f37ce14610080575b600080fd5b61004e61009e565b60405161005b91906101b6565b60405180910390f35b61007e60048036038101906100799190610357565b6100a4565b005b61008861010f565b6040516100959190610432565b60405180910390f35b60015481565b81600090816100b39190610660565b50806001819055503373ffffffffffffffffffffffffffffffffffffffff167ffcf7e99294da4bb0adffd8a8833bca0707c0b665ce07057b57974b36e57696308383604051610103929190610732565b60405180910390a25050565b6000805461011c90610483565b80601f016020809104026020016040519081016040528092919081815260200182805461014890610483565b80156101955780601f1061016a57610100808354040283529160200191610195565b820191906000526020600020905b81548152906001019060200180831161017857829003601f168201915b505050505081565b6000819050919050565b6101b08161019d565b82525050565b60006020820190506101cb60008301846101a7565b92915050565b6000604051905090565b600080fd5b600080fd5b600080fd5b600080fd5b6000601f19601f8301169050919050565b7f4e487b7100000000000000000000000000000000000000000000000000000000600052604160045260246000fd5b610238826101ef565b810181811067ffffffffffffffff8211171561025757610256610200565b5b80604052505050565b600061026a6101d1565b9050610276828261022f565b919050565b600067ffffffffffffffff82111561029657610295610200565b5b61029f826101ef565b9050602081019050919050565b82818337600083830152505050565b60006102ce6102c98461027b565b610260565b9050828152602081018484840111156102ea576102e96101ea565b5b6102f58482856102ac565b509392505050565b600082601f830112610312576103116101e5565b5b81356103228482602086016102bb565b91505092915050565b6103348161019d565b811461033f57600080fd5b50565b6000813590506103518161032b565b92915050565b6000806040838503121561036e5761036d6101db565b5b600083013567ffffffffffffffff81111561038c5761038b6101e0565b5b610398858286016102fd565b92505060206103a985828601610342565b9150509250929050565b600081519050919050565b600082825260208201905092915050565b60005b838110156103ed5780820151818401526020810190506103d2565b60008484015250505050565b6000610404826103b3565b61040e81856103be565b935061041e8185602086016103cf565b610427816101ef565b840191505092915050565b6000602082019050818103600083015261044c81846103f9565b905092915050565b7f4e487b7100000000000000000000000000000000000000000000000000000000600052602260045260246000fd5b6000600282049050600182168061049b57607f821691505b6020821081036104ae576104ad610454565b5b50919050565b60008190508160005260206000209050919050565b60006020601f8301049050919050565b600082821b905092915050565b6000600883026105167fffffffffffffffffffffffffffffffffffffffffffffffffffffffffffffffff826104d9565b61052086836104d9565b95508019841693508086168417925050509392505050565b6000819050919050565b600061055d6105586105538461019d565b610538565b61019d565b9050919050565b6000819050919050565b61057783610542565b61058b61058382610564565b8484546104e6565b825550505050565b600090565b6105a0610593565b6105ab81848461056e565b505050565b5b818110156105cf576105c4600082610598565b6001810190506105b1565b5050565b601f821115610614576105e5816104b4565b6105ee846104c9565b810160208510156105fd578190505b610611610609856104c9565b8301826105b0565b50505b505050565b600082821c905092915050565b600061063760001984600802610619565b1980831691505092915050565b60006106508383610626565b9150826002028217905092915050565b610669826103b3565b67ffffffffffffffff81111561068257610681610200565b5b61068c8254610483565b6106978282856105d3565b600060209050601f8311600181146106ca57600084156106b8578287015190505b6106c28582610644565b86555061072a565b601f1984166106d8866104b4565b60005b82811015610700578489015182556001820191506020850194506020810190506106db565b8683101561071d5784890151610719601f891682610626565b8355505b6001600288020188555050505b505050505050565b6000604082019050818103600083015261074c81856103f9565b905061075b60208301846101a7565b939250505056fea26469706673582212207e511decf031c84976887ced1a937d2d9406907b5d1d73fadf0e7e3c3cd51ffb64736f6c63430008130033",
  "linkReferences": {},
  "deployedLinkReferences": {}
}